S010000050726F6A656374322E737265630B
S11300000C942A000C9447000C9447000C9447006D
S11300100C9447000C9447000C9447000C94470040
S11300200C9447000C9447000C9447000C94470030
S11300300C9447000C9447000C9447000C94470020
S11300400C9447000C9447000C9447000C94470010
S11300500C94470011241FBECFE5D4E0DEBFCDBF12
S113006010E0A0E6B0E0ECE2FBE002C005900D92E7
S1130070A43AB107D9F720E0A4EAB0E001C01D9288
S1130080AA3AB207E1F70E9437010C9494050C9444
S11300900000979A82E18A95F1F700C0979885E865
S11300A08A95F1F70000089580FF02C0AC9A01C060
S11300B0AC9881FF02C0AD9A01C0AD9882FF02C026
S11300C0AE9A01C0AE9883FF02C0AF9A0895AF986C
S11300D00895CF93C82F82958F700E9454000E9478
S11300E049008C2F0E9454000E944900CF9108952A
S11300F081E00E9469008FE99FE00197F1F700C059
S11301000000089580E00E9454008FE39CE9019769
S1130110F1F700C000009698959883E00E9454007F
S11301200E9449008FE097E20197F1F700C00000B8
S11301300E94490087EC90E00197F1F700C00000AD
S11301400E94490082E00E9454000E94490088E213
S11301500E9469008CE00E94690086E00E946900A8
S113016081E00E94690082E00E9469008FE99FE0BB
S11301700197F1F700C000000895672B11F480582F
S113018001C08054EFECF7E03197F1F700C00000B4
S11301900E946900F5E8FA95F1F700000895969A2F
S11301A00E94690096980895CF93DF93EC018881AB
S11301B0882331F021960E94CF0089918111FBCFD1
S11301C0DF91CF910895B89AC0988FE39CE9019785
S11301D0F1F700C00000C09A0895B898B099FECF16
S11301E0B09BFECFB099FECF089588E090E0B09B1D
S11301F0FECF20E52A95F1F7B09B07C02091A90016
S1130200220F21602093A90005C02091A900220F8C
S11302102093A900B099FECF019749F78091A900D6
S11302200895CF92DF92EF92FF92CF9369017A0102
S113023020E030E040EA52E40E943F02882374F058
S1130240C1E020E030E048EC51E4C701B6010E946F
S1130250A50218160CF0C0E0CC2311F0D89A01C006
S1130260D898CF91FF90EF90DF90CF900895CF93DF
S1130270DF93CDB7DEB72A970FB6F894DEBF0FBE73
S1130280CDBF81B39FEF91BB82B38A6A82BB84B333
S113029094BB85B385BBD09A8BB38BBB0E94820081
S11302A060E070E080E090E00E94BD0080E690E0B5
S11302B00E94D40061E070E081E090E00E94BD0003
S11302C08EE690E00E94D4002FEF8DE399E4215054
S11302D080409040E1F700C000000E9478002FEFBA
S11302E080E792E0215080409040E1F700C0000098
S11302F00F2EF1E9AF2EF0E0BF2EF02DCE010196C6
S11303006C010F2EFEE9EF2EF0E0FF2EF02D8E0192
S11303100A5F1F4F0E94E3000E94ED000E94F50057
S11303208093A8000E94F5008093A7000E94F50026
S11303308093A6000E94F5008093A5000E94F5001A
S11303408093A4009091A8002091A70030E0290F89
S1130350311D9091A600290F311D9091A500290F00
S1130360311D90E02817390759F060E070E080E013
S113037090E00E94BD008DE790E00E94D40078C018
S113038060E070E080E090E00E94BD0086E890E0CC
S11303900E94D4008091A6001F928F93BF92AF92C7
S11303A0DF92CF920E94AA029FEF24E38CE0915047
S11303B020408040E1F700C0000060E070E08AE087
S11303C090E00E94BD00C6010E94D40061E070E08C
S11303D080E090E00E94BD0086E990E00E94D40095
S11303E08091A8001F928F93FF92EF921F930F9317
S11303F00E94AA029FEF20E782E0915020408040B3
S1130400E1F700C0000061E070E087E090E00E9446
S1130410BD00C8010E94D40061E070E08AE090E071
S11304200E94BD0082EA90E00E94D4009FEF24E382
S11304308CE0915020408040E1F700C000006091C2
S1130440A60070E080E090E00E9444022B013C0191
S11304506091A80070E080E090E00E944402A30153
S113046092010E9411010FB6F894DEBF0FBECDBFFA
S11304708FE19EE40197F1F700C000004BCF0E948A
S1130480810208F481E00895E89409C097FB3EF4E2
S113049090958095709561957F4F8F4F9F4F9923CD
S11304A0A9F0F92F96E9BB279395F695879577954B
S11304B06795B795F111F8CFFAF4BB0F11F460FF0B
S11304C01BC06F5F7F4F8F4F9F4F16C0882311F063
S11304D096E911C0772321F09EE8872F762F05C077
S11304E0662371F096E8862F70E060E02AF09A9512
S11304F0660F771F881FDAF7880F9695879597F907
S11305000895990F0008550FAA0BE0E8FEEF1616A0
S11305101706E807F907C0F012161306E407F507F3
S113052098F0621B730B840B950B39F40A2661F067
S1130530232B242B252B21F408950A2609F4A1400A
S1130540A6958FEF811D811D08950E94810208F4F4
S11305508FEF0895AEE0B0E0E0EBF2E00C946B05B1
S11305600D891E8986E08C831A8309838FEF9FE7A8
S11305709E838D83AE01475E5F4F6F89788DCE0178
S113058001960E94CC02EF81F885E00FF11F1082E2
S11305902E96E4E00C948705ABE0B0E0E2EDF2E0E7
S11305A00C945D056C017B018A01FC0117821682A3
S11305B0838181FFCCC1CE0101963C01F601938178
S11305C0F70193FD859193FF81917F01882309F4BD
S11305D0BAC1853239F493FD859193FF81917F01EE
S11305E0853229F4B60190E00E94C304E7CF912C30
S11305F0212C312CFFE1F315D8F08B3279F038F44B
S1130600803279F08332A1F4232D20611DC08D3214
S113061061F0803369F4232D216016C0832D82603C
S1130620382EE32DE4603E2E2AC0F32DF8601DC061
S113063037FC2DC020ED280F2A3040F08E32B9F45B
S113064036FC81C1232D2064322E19C036FE06C02B
S11306508AE0989E200D1124922E11C0EAE02E9E6D
S1130660200D1124222EF32DF0623F2E08C08C366B
S113067021F4832D8068382E02C0883641F4F701B6
S113068093FD859193FF81917F018111B3CF982FC1
S11306909F7D9554933028F40C5F1F4F9FE39983FB
S11306A00DC0833631F0833771F0833509F059C0BA
S11306B021C0F801808189830E5F1F4F88248394B1
S11306C0912C530113C02801F2E04F0E511CF80184
S11306D0A080B18036FE03C0692D70E002C06FEFC8
S11306E07FEFC5010E94B8044C018201F32DFF770E
S11306F03F2E16C0280122E0420E511CF801A080B2
S1130700B18036FE03C0692D70E002C06FEF7FEF49
S1130710C5010E94AD044C01F32DF0683F2E820107
S113072033FC1BC0822D90E088169906B0F4B60104
S113073080E290E00E94C3042A94F4CFF50137FCD0
S1130740859137FE81915F01B60190E00E94C30458
S113075021102A9421E0821A91088114910471F7DE
S1130760E8C0843611F0893641F5F80137FE07C038
S113077060817181828193810C5F1F4F08C0608109
S11307807181072E000C880B990B0E5F1F4FF32D00
S1130790FF763F2E97FF09C09095809570956195DF
S11307A07F4F8F4F9F4FF0683F2E2AE030E0A30128
S11307B00E94FF04882E861845C0853731F4232D06
S11307C02F7EB22E2AE030E025C0932D997FB92EDA
S11307D08F36C1F018F4883579F0B5C0803719F038
S11307E0883721F0B0C0E92FE061BE2EB4FE0DC001
S11307F0FB2DF460BF2E09C034FE0AC0292F2660E9
S1130800B22E06C028E030E005C020E130E002C08E
S113081020E132E0F801B7FE07C060817181828176
S113082093810C5F1F4F06C06081718180E090E06E
S11308300E5F1F4FA3010E94FF04882E8618FB2D14
S1130840FF773F2E36FE0DC0232D2E7FA22E891456
S113085058F434FE0BC032FC09C0832D8E7EA82EC2
S113086005C0B82CA32C03C0B82C01C0B92CA4FE1D
S11308700FC0FE01E80DF11D8081803321F49A2D13
S1130880997EA92E09C0A2FE06C0B394B39404C0F5
S11308908A2D867809F0B394A3FC11C0A0FE06C08B
S11308A0B21488F4280C922C9B180EC0B21460F475
S11308B0B60180E290E00E94C304B394F7CFB2146F
S11308C018F42B1802C0982C212CA4FE10C0B601D9
S11308D080E390E00E94C304A2FE17C0A1FC03C001
S11308E088E790E002C088E590E0B6010CC08A2D4C
S11308F0867859F0A1FE02C08BE201C080E2A7FC19
S11309008DE2B60190E00E94C304891438F4B60164
S113091080E390E00E94C3049A94F7CF8A94F30191
S1130920E80DF11D8081B60190E00E94C30481109E
S1130930F5CF222009F442CEB60180E290E00E9475
S1130940C3042A94F6CFF6018681978102C08FEF03
S11309509FEF2B96E2E10C947905FC010590615020
S113096070400110D8F7809590958E0F9F1F0895C1
S1130970FC016150704001900110D8F7809590956A
S11309808E0F9F1F08950F931F93CF93DF93FB0147
S1130990238121FD03C08FEF9FEF2CC022FF16C0DF
S11309A046815781248135814217530744F4A0813D
S11309B0B1819D012F5F3F4F318320838C9326812A
S11309C037812F5F3F4F3783268314C08B01EC019F
S11309D0FB010084F185E02D0995892BE1F6D8010E
S11309E016968D919C911797019617969C938E93CA
S11309F01697CE01DF91CF911F910F910895FA01BF
S1130A00AA27283051F1203181F1E8946F936E7F49
S1130A106E5F7F4F8F4F9F4FAF4FB1E03ED0B4E03A
S1130A203CD0670F781F891F9A1FA11D680F791F7B
S1130A308A1F911DA11D6A0F711D811D911DA11D8C
S1130A4020D009F468943F912AE0269F112430199C
S1130A50305D3193DEF6CF010895462F4770405D37
S1130A604193B3E00FD0C9F7F6CF462F4F70405DE6
S1130A704A3318F0495D31FD4052419302D0A9F741
S1130A80EACFB4E0A6959795879577956795BA953B
S1130A90C9F700976105710508959B01AC010A2E01
S1130AA006945795479537952795BA95C9F7620FD8
S1130AB0731F841F951FA01D08952F923F924F927C
S1130AC05F926F927F928F929F92AF92BF92CF92DA
S1130AD0DF92EF92FF920F931F93CF93DF93CDB7E3
S1130AE0DEB7CA1BDB0B0FB6F894DEBF0FBECDBF5B
S1130AF009942A88398848885F846E847D848C842C
S1130B009B84AA84B984C884DF80EE80FD800C8134
S1130B101B81AA81B981CE0FD11D0FB6F894DEBF17
S10F0B200FBECDBFED010895F894FFCF87
S1130B2C5068616D2056616E20486F616E004D53A4
S1130B3C53563A20323032303334323700457272E5
S1130B4C6F72212121004E6869657420646F3A200C
S1130B5C002564DF4300446F20616D3A2000256456
S1070B6C200025003C
S9030000FC
